:060000000A128A110C280F
:10000800FE00030EF0000A08F1000A128A115B28AC
:100018000A128A110F2883010A128A1147288316A7
:1000280003130715C73092003F3083120313970557
:100038001708F0390C3897007D309500CF309705B8
:100048008C100330920412158C1C2B282C2828287D
:100058008C108316031307110800831603178801F1
:10006800890183160313870183120313850186010F
:100078008701880189017030831603138F040F14D8
:100088008B170B1708000A128A1131200A128A11DD
:100098000A128A1113200A128A117D30831203135F
:1000A8009500CF30970551280A128A110C2871083B
:0C00B8008A00700E8300FE0E7E0E090010
:08400000FF3FFF3FFF3FFF3FC0
:04400E00D420FF3F7C
:00000001FF
